S00D0000436F6465312E737265636B
S11300000C9434000C943E000C943E000C943E007E
S11300100C943E000C943E000C943E000C943E0064
S11300200C943E000C943E000C943E000C943E0054
S11300300C943E000C943E000C943E000C943E0044
S11300400C943E000C943E000C943E000C943E0034
S11300500C943E000C943E000C943E000C943E0024
S11300600C943E000C943E0011241FBECFEFD8E048
S1130070DEBFCDBF0E9440000C9458000C940000D9
S11300808FEF85B984B92FEF39E698E121503040DC
S11300909040E1F700C0000085B914B82FEF39E6AD
S11300A098E1215030409040E1F700C00000E9CFD2
S10700B0F894FFCFEE
S9030000FC
